{
  "contractName": "Campaign",
  "abi": [
    {
      "inputs": [
        {
          "internalType": "uint256",
          "name": "minimun",
          "type": "uint256"
        },
        {
          "internalType": "address",
          "name": "creator",
          "type": "address"
        },
        {
          "internalType": "string",
          "name": "name",
          "type": "string"
        },
        {
          "internalType": "string",
          "name": "description",
          "type": "string"
        },
        {
          "internalType": "string",
          "name": "image",
          "type": "string"
        },
        {
          "internalType": "string",
          "name": "created",
          "type": "string"
        },
        {
          "internalType": "string",
          "name": "updated",
          "type": "string"
        },
        {
          "internalType": "uint256",
          "name": "target",
          "type": "uint256"
        }
      ],
      "stateMutability": "nonpayable",
      "type": "constructor"
    },
    {
      "inputs": [],
      "name": "CampaignDescription",
      "outputs": [
        {
          "internalType": "string",
          "name": "",
          "type": "string"
        }
      ],
      "stateMutability": "view",
      "type": "function"
    },
    {
      "inputs": [],
      "name": "CampaignName",
      "outputs": [
        {
          "internalType": "string",
          "name": "",
          "type": "string"
        }
      ],
      "stateMutability": "view",
      "type": "function"
    },
    {
      "inputs": [
        {
          "internalType": "address",
          "name": "",
          "type": "address"
        }
      ],
      "name": "approvers",
      "outputs": [
        {
          "internalType": "bool",
          "name": "",
          "type": "bool"
        }
      ],
      "stateMutability": "view",
      "type": "function"
    },
    {
      "inputs": [],
      "name": "approversCount",
      "outputs": [
        {
          "internalType": "uint256",
          "name": "",
          "type": "uint256"
        }
      ],
      "stateMutability": "view",
      "type": "function"
    },
    {
      "inputs": [
        {
          "internalType": "uint256",
          "name": "",
          "type": "uint256"
        }
      ],
      "name": "contributors",
      "outputs": [
        {
          "internalType": "address",
          "name": "",
          "type": "address"
        }
      ],
      "stateMutability": "view",
      "type": "function"
    },
    {
      "inputs": [],
      "name": "dateCreated",
      "outputs": [
        {
          "internalType": "string",
          "name": "",
          "type": "string"
        }
      ],
      "stateMutability": "view",
      "type": "function"
    },
    {
      "inputs": [],
      "name": "dateUpdated",
      "outputs": [
        {
          "internalType": "string",
          "name": "",
          "type": "string"
        }
      ],
      "stateMutability": "view",
      "type": "function"
    },
    {
      "inputs": [],
      "name": "imageUrl",
      "outputs": [
        {
          "internalType": "string",
          "name": "",
          "type": "string"
        }
      ],
      "stateMutability": "view",
      "type": "function"
    },
    {
      "inputs": [],
      "name": "manager",
      "outputs": [
        {
          "internalType": "address",
          "name": "",
          "type": "address"
        }
      ],
      "stateMutability": "view",
      "type": "function"
    },
    {
      "inputs": [],
      "name": "minimunContribution",
      "outputs": [
        {
          "internalType": "uint256",
          "name": "",
          "type": "uint256"
        }
      ],
      "stateMutability": "view",
      "type": "function"
    },
    {
      "inputs": [],
      "name": "targetToAchieve",
      "outputs": [
        {
          "internalType": "uint256",
          "name": "",
          "type": "uint256"
        }
      ],
      "stateMutability": "view",
      "type": "function"
    },
    {
      "inputs": [],
      "name": "contribute",
      "outputs": [],
      "stateMutability": "payable",
      "type": "function"
    },
    {
      "inputs": [
        {
          "internalType": "string",
          "name": "description",
          "type": "string"
        },
        {
          "internalType": "uint256",
          "name": "value",
          "type": "uint256"
        },
        {
          "internalType": "address",
          "name": "recipient",
          "type": "address"
        }
      ],
      "name": "createRequest",
      "outputs": [],
      "stateMutability": "nonpayable",
      "type": "function"
    },
    {
      "inputs": [
        {
          "internalType": "uint256",
          "name": "index",
          "type": "uint256"
        }
      ],
      "name": "approveRequest",
      "outputs": [],
      "stateMutability": "nonpayable",
      "type": "function"
    },
    {
      "inputs": [
        {
          "internalType": "uint256",
          "name": "index",
          "type": "uint256"
        }
      ],
      "name": "finalizeRequest",
      "outputs": [],
      "stateMutability": "nonpayable",
      "type": "function"
    },
    {
      "inputs": [],
      "name": "getSummary",
      "outputs": [
        {
          "internalType": "uint256",
          "name": "",
          "type": "uint256"
        },
        {
          "internalType": "uint256",
          "name": "",
          "type": "uint256"
        },
        {
          "internalType": "uint256",
          "name": "",
          "type": "uint256"
        },
        {
          "internalType": "uint256",
          "name": "",
          "type": "uint256"
        },
        {
          "internalType": "address",
          "name": "",
          "type": "address"
        },
        {
          "internalType": "string",
          "name": "",
          "type": "string"
        },
        {
          "internalType": "string",
          "name": "",
          "type": "string"
        },
        {
          "internalType": "string",
          "name": "",
          "type": "string"
        },
        {
          "internalType": "string",
          "name": "",
          "type": "string"
        },
        {
          "internalType": "string",
          "name": "",
          "type": "string"
        },
        {
          "internalType": "uint256",
          "name": "",
          "type": "uint256"
        }
      ],
      "stateMutability": "view",
      "type": "function"
    },
    {
      "inputs": [],
      "name": "getRequestsCount",
      "outputs": [
        {
          "internalType": "uint256",
          "name": "",
          "type": "uint256"
        }
      ],
      "stateMutability": "view",
      "type": "function"
    }
  ],
  "bytecode": "0x60806040523480156200001157600080fd5b5060405162001c3738038062001c378339818101604052810190620000379190620003fe565b86600160006101000a81548173ffffffffffffffffffffffffffffffffffffffff021916908373ffffffffffffffffffffffffffffffffffffffff1602179055508760028190555085600390805190602001906200009792919062000111565b508460049080519060200190620000b092919062000111565b508360059080519060200190620000c992919062000111565b5082600b9080519060200190620000e292919062000111565b5081600a9080519060200190620000fb92919062000111565b50806006819055505050505050505050620005c7565b8280546200011f9062000591565b90600052602060002090601f0160209004810192826200014357600085556200018f565b82601f106200015e57805160ff19168380011785556200018f565b828001600101855582156200018f579182015b828111156200018e57825182559160200191906001019062000171565b5b5090506200019e9190620001a2565b5090565b5b80821115620001bd576000816000905550600101620001a3565b5090565b6000604051905090565b600080fd5b600080fd5b6000819050919050565b620001ea81620001d5565b8114620001f657600080fd5b50565b6000815190506200020a81620001df565b92915050565b600073ffffffffffffffffffffffffffffffffffffffff82169050919050565b60006200023d8262000210565b9050919050565b6200024f8162000230565b81146200025b57600080fd5b50565b6000815190506200026f8162000244565b92915050565b600080fd5b600080fd5b6000601f19601f8301169050919050565b7f4e487b7100000000000000000000000000000000000000000000000000000000600052604160045260246000fd5b620002ca826200027f565b810181811067ffffffffffffffff82111715620002ec57620002eb62000290565b5b80604052505050565b600062000301620001c1565b90506200030f8282620002bf565b919050565b600067ffffffffffffffff82111562000332576200033162000290565b5b6200033d826200027f565b9050602081019050919050565b60005b838110156200036a5780820151818401526020810190506200034d565b838111156200037a576000848401525b50505050565b600062000397620003918462000314565b620002f5565b905082815260208101848484011115620003b657620003b56200027a565b5b620003c38482856200034a565b509392505050565b600082601f830112620003e357620003e262000275565b5b8151620003f584826020860162000380565b91505092915050565b600080600080600080600080610100898b031215620004225762000421620001cb565b5b6000620004328b828c01620001f9565b9850506020620004458b828c016200025e565b975050604089015167ffffffffffffffff811115620004695762000468620001d0565b5b620004778b828c01620003cb565b965050606089015167ffffffffffffffff8111156200049b576200049a620001d0565b5b620004a98b828c01620003cb565b955050608089015167ffffffffffffffff811115620004cd57620004cc620001d0565b5b620004db8b828c01620003cb565b94505060a089015167ffffffffffffffff811115620004ff57620004fe620001d0565b5b6200050d8b828c01620003cb565b93505060c089015167ffffffffffffffff811115620005315762000530620001d0565b5b6200053f8b828c01620003cb565b92505060e0620005528b828c01620001f9565b9150509295985092959890939650565b7f4e487b7100000000000000000000000000000000000000000000000000000000600052602260045260246000fd5b60006002820490506001821680620005aa57607f821691505b60208210811415620005c157620005c062000562565b5b50919050565b61166080620005d76000396000f3fe6080604052600436106100fe5760003560e01c80637e7cd1b311610095578063a7f3371511610064578063a7f3371514610331578063aba831501461035c578063b2a87fc314610387578063d7bb99ba146103b2578063d7d1bbdb146103bc576100fe565b80637e7cd1b31461028757806382fde093146102b25780638a9cfd55146102dd57806397654a8c14610306576100fe565b80633410452a116100d15780633410452a146101bf5780633cb5d100146101ea5780634051ddac14610227578063481c6a751461025c576100fe565b80630201e53514610103578063034410061461012e5780630a144391146101575780631f741c7a14610194575b600080fd5b34801561010f57600080fd5b506101186103e5565b60405161012591906110d1565b60405180910390f35b34801561013a57600080fd5b506101556004803603810190610150919061113d565b610473565b005b34801561016357600080fd5b5061017e600480360381019061017991906111c8565b6105eb565b60405161018b9190611210565b60405180910390f35b3480156101a057600080fd5b506101a961060b565b6040516101b691906110d1565b60405180910390f35b3480156101cb57600080fd5b506101d4610699565b6040516101e1919061123a565b60405180910390f35b3480156101f657600080fd5b50610211600480360381019061020c919061113d565b6106a3565b60405161021e9190611264565b60405180910390f35b34801561023357600080fd5b5061023c6106e2565b6040516102539b9a9998979695949392919061127f565b60405180910390f35b34801561026857600080fd5b50610271610a0d565b60405161027e9190611264565b60405180910390f35b34801561029357600080fd5b5061029c610a33565b6040516102a991906110d1565b60405180910390f35b3480156102be57600080fd5b506102c7610ac1565b6040516102d4919061123a565b60405180910390f35b3480156102e957600080fd5b5061030460048036038101906102ff9190611482565b610ac7565b005b34801561031257600080fd5b5061031b610bdf565b60405161032891906110d1565b60405180910390f35b34801561033d57600080fd5b50610346610c6d565b604051610353919061123a565b60405180910390f35b34801561036857600080fd5b50610371610c73565b60405161037e91906110d1565b60405180910390f35b34801561039357600080fd5b5061039c610d01565b6040516103a9919061123a565b60405180910390f35b6103ba610d07565b005b3480156103c857600080fd5b506103e360048036038101906103de919061113d565b610e3c565b005b600a80546103f290611520565b80601f016020809104026020016040519081016040528092919081815260200182805461041e90611520565b801561046b5780601f106104405761010080835404028352916020019161046b565b820191906000526020600020905b81548152906001019060200180831161044e57829003601f168201915b505050505081565b600160009054906101000a900473ffffffffffffffffffffffffffffffffffffffff1673ffffffffffffffffffffffffffffffffffffffff163373ffffffffffffffffffffffffffffffffffffffff16146104cd57600080fd5b60026009546104dc91906115b0565b60008083815260200190815260200160002060030154116104fc57600080fd5b60008082815260200190815260200160002060020160149054906101000a900460ff161561052957600080fd5b60008082815260200190815260200160002060020160009054906101000a900473ffffffffffffffffffffffffffffffffffffffff1673ffffffffffffffffffffffffffffffffffffffff166108fc600080848152602001908152602001600020600101549081150290604051600060405180830381858888f193505050501580156105b9573d6000803e3d6000fd5b50600160008083815260200190815260200160002060020160146101000a81548160ff02191690831515021790555050565b60086020528060005260406000206000915054906101000a900460ff1681565b600b805461061890611520565b80601f016020809104026020016040519081016040528092919081815260200182805461064490611520565b80156106915780601f1061066657610100808354040283529160200191610691565b820191906000526020600020905b81548152906001019060200180831161067457829003601f168201915b505050505081565b6000600c54905090565b600781815481106106b357600080fd5b906000526020600020016000915054906101000a900473ffffffffffffffffffffffffffffffffffffffff1681565b60008060008060006060806060806060600060025447600c54600954600160009054906101000a900473ffffffffffffffffffffffffffffffffffffffff16600360046005600b600a60065485805461073a90611520565b80601f016020809104026020016040519081016040528092919081815260200182805461076690611520565b80156107b35780601f10610788576101008083540402835291602001916107b3565b820191906000526020600020905b81548152906001019060200180831161079657829003601f168201915b505050505095508480546107c690611520565b80601f01602080910402602001604051908101604052809291908181526020018280546107f290611520565b801561083f5780601f106108145761010080835404028352916020019161083f565b820191906000526020600020905b81548152906001019060200180831161082257829003601f168201915b5050505050945083805461085290611520565b80601f016020809104026020016040519081016040528092919081815260200182805461087e90611520565b80156108cb5780601f106108a0576101008083540402835291602001916108cb565b820191906000526020600020905b8154815290600101906020018083116108ae57829003601f168201915b505050505093508280546108de90611520565b80601f016020809104026020016040519081016040528092919081815260200182805461090a90611520565b80156109575780601f1061092c57610100808354040283529160200191610957565b820191906000526020600020905b81548152906001019060200180831161093a57829003601f168201915b5050505050925081805461096a90611520565b80601f016020809104026020016040519081016040528092919081815260200182805461099690611520565b80156109e35780601f106109b8576101008083540402835291602001916109e3565b820191906000526020600020905b8154815290600101906020018083116109c657829003601f168201915b505050505091509a509a509a509a509a509a509a509a509a509a509a50909192939495969798999a565b600160009054906101000a900473ffffffffffffffffffffffffffffffffffffffff1681565b60038054610a4090611520565b80601f0160208091040260200160405190810160405280929190818152602001828054610a6c90611520565b8015610ab95780601f10610a8e57610100808354040283529160200191610ab9565b820191906000526020600020905b815481529060010190602001808311610a9c57829003601f168201915b505050505081565b60095481565b600160009054906101000a900473ffffffffffffffffffffffffffffffffffffffff1673ffffffffffffffffffffffffffffffffffffffff163373ffffffffffffffffffffffffffffffffffffffff1614610b2157600080fd5b6000806000600c6000815480929190610b39906115e1565b919050558152602001908152602001600020905083816000019080519060200190610b65929190610f95565b50828160010181905550818160020160006101000a81548173ffffffffffffffffffffffffffffffffffffffff021916908373ffffffffffffffffffffffffffffffffffffffff16021790555060008160020160146101000a81548160ff0219169083151502179055506000816003018190555050505050565b60048054610bec90611520565b80601f0160208091040260200160405190810160405280929190818152602001828054610c1890611520565b8015610c655780601f10610c3a57610100808354040283529160200191610c65565b820191906000526020600020905b815481529060010190602001808311610c4857829003601f168201915b505050505081565b60025481565b60058054610c8090611520565b80601f0160208091040260200160405190810160405280929190818152602001828054610cac90611520565b8015610cf95780601f10610cce57610100808354040283529160200191610cf9565b820191906000526020600020905b815481529060010190602001808311610cdc57829003601f168201915b505050505081565b60065481565b6002543411610d1557600080fd5b600860003373ffffffffffffffffffffffffffffffffffffffff1673ffffffffffffffffffffffffffffffffffffffff16815260200190815260200160002060009054906101000a900460ff16610e3a576007339080600181540180825580915050600190039060005260206000200160009091909190916101000a81548173ffffffffffffffffffffffffffffffffffffffff021916908373ffffffffffffffffffffffffffffffffffffffff16021790555060096000815480929190610ddc906115e1565b91905055506001600860003373ffffffffffffffffffffffffffffffffffffffff1673ffffffffffffffffffffffffffffffffffffffff16815260200190815260200160002060006101000a81548160ff0219169083151502179055505b565b600860003373ffffffffffffffffffffffffffffffffffffffff1673ffffffffffffffffffffffffffffffffffffffff16815260200190815260200160002060009054906101000a900460ff16610e9257600080fd5b60008082815260200190815260200160002060040160003373ffffffffffffffffffffffffffffffffffffffff1673ffffffffffffffffffffffffffffffffffffffff16815260200190815260200160002060009054906101000a900460ff1615610efc57600080fd5b600160008083815260200190815260200160002060040160003373ffffffffffffffffffffffffffffffffffffffff1673ffffffffffffffffffffffffffffffffffffffff16815260200190815260200160002060006101000a81548160ff0219169083151502179055506000808281526020019081526020016000206003016000815480929190610f8d906115e1565b919050555050565b828054610fa190611520565b90600052602060002090601f016020900481019282610fc3576000855561100a565b82601f10610fdc57805160ff191683800117855561100a565b8280016001018555821561100a579182015b82811115611009578251825591602001919060010190610fee565b5b509050611017919061101b565b5090565b5b8082111561103457600081600090555060010161101c565b5090565b600081519050919050565b600082825260208201905092915050565b60005b83811015611072578082015181840152602081019050611057565b83811115611081576000848401525b50505050565b6000601f19601f8301169050919050565b60006110a382611038565b6110ad8185611043565b93506110bd818560208601611054565b6110c681611087565b840191505092915050565b600060208201905081810360008301526110eb8184611098565b905092915050565b6000604051905090565b600080fd5b600080fd5b6000819050919050565b61111a81611107565b811461112557600080fd5b50565b60008135905061113781611111565b92915050565b600060208284031215611153576111526110fd565b5b600061116184828501611128565b91505092915050565b600073ffffffffffffffffffffffffffffffffffffffff82169050919050565b60006111958261116a565b9050919050565b6111a58161118a565b81146111b057600080fd5b50565b6000813590506111c28161119c565b92915050565b6000602082840312156111de576111dd6110fd565b5b60006111ec848285016111b3565b91505092915050565b60008115159050919050565b61120a816111f5565b82525050565b60006020820190506112256000830184611201565b92915050565b61123481611107565b82525050565b600060208201905061124f600083018461122b565b92915050565b61125e8161118a565b82525050565b60006020820190506112796000830184611255565b92915050565b600061016082019050611295600083018e61122b565b6112a2602083018d61122b565b6112af604083018c61122b565b6112bc606083018b61122b565b6112c9608083018a611255565b81810360a08301526112db8189611098565b905081810360c08301526112ef8188611098565b905081810360e08301526113038187611098565b90508181036101008301526113188186611098565b905081810361012083015261132d8185611098565b905061133d61014083018461122b565b9c9b505050505050505050505050565b600080fd5b600080fd5b7f4e487b7100000000000000000000000000000000000000000000000000000000600052604160045260246000fd5b61138f82611087565b810181811067ffffffffffffffff821117156113ae576113ad611357565b5b80604052505050565b60006113c16110f3565b90506113cd8282611386565b919050565b600067ffffffffffffffff8211156113ed576113ec611357565b5b6113f682611087565b9050602081019050919050565b82818337600083830152505050565b6000611425611420846113d2565b6113b7565b90508281526020810184848401111561144157611440611352565b5b61144c848285611403565b509392505050565b600082601f8301126114695761146861134d565b5b8135611479848260208601611412565b91505092915050565b60008060006060848603121561149b5761149a6110fd565b5b600084013567ffffffffffffffff8111156114b9576114b8611102565b5b6114c586828701611454565b93505060206114d686828701611128565b92505060406114e7868287016111b3565b9150509250925092565b7f4e487b7100000000000000000000000000000000000000000000000000000000600052602260045260246000fd5b6000600282049050600182168061153857607f821691505b6020821081141561154c5761154b6114f1565b5b50919050565b7f4e487b7100000000000000000000000000000000000000000000000000000000600052601260045260246000fd5b7f4e487b7100000000000000000000000000000000000000000000000000000000600052601160045260246000fd5b60006115bb82611107565b91506115c683611107565b9250826115d6576115d5611552565b5b828204905092915050565b60006115ec82611107565b91507fffffffffffffffffffffffffffffffffffffffffffffffffffffffffffffffff82141561161f5761161e611581565b5b60018201905091905056fea2646970667358221220f738f6291245860ac8e8eff393331f688b32fcef4ebac447b3a24826e23cc29d64736f6c63430008090033",
  "immutableReferences": {},
  "source": "// SPDX-License-Identifier: MIT\npragma solidity ^0.8.9;\n\ncontract CampaignFactory {\n    address[] public deployedCampaigns;\n\n    constructor() {}\n\n    event CampaignCreation(address campaign);\n\n    function createCampaign(\n        uint256 minimum,\n        string memory name,\n        string memory description,\n        string memory image,\n        string memory dateCreated,\n        string memory dateUpdated,\n        uint256 target\n    ) public {\n        Campaign newCampaign = new Campaign(\n            minimum,\n            msg.sender,\n            name,\n            description,\n            image,\n            dateCreated,\n            dateUpdated,\n            target\n        );\n        deployedCampaigns.push(address(newCampaign));\n        emit CampaignCreation(address(newCampaign));\n    }\n\n    function getDeployedCampaigns() public view returns (address[] memory) {\n        return deployedCampaigns;\n    }\n\n    function getDeployedCampaignsLength() public view returns (uint256) {\n        return deployedCampaigns.length;\n    }\n\n    function getCampaignByIndex(uint256 index) public view returns (address) {\n        return deployedCampaigns[index];\n    }\n\n    function getNewestCampaignAddress() public view returns (address) {\n        return deployedCampaigns[deployedCampaigns.length - 1];\n    }\n}\n\ncontract Campaign {\n    struct Request {\n        string description;\n        uint256 value;\n        address recipient;\n        bool complete;\n        uint256 approvalCount;\n        mapping(address => bool) approvals;\n    }\n    mapping(uint256 => Request) requests;\n    // Request[] public requests;\n    address public manager;\n    uint256 public minimunContribution;\n    string public CampaignName;\n    string public CampaignDescription;\n    string public imageUrl;\n    uint256 public targetToAchieve;\n    address[] public contributors;\n    mapping(address => bool) public approvers;\n    uint256 public approversCount;\n    string public dateUpdated;\n    string public dateCreated;\n    uint256 numRequests;\n    // mapping(uint256 => Request) requestsMap;\n\n    modifier restricted() {\n        require(msg.sender == manager);\n        _;\n    }\n\n    constructor(\n        uint256 minimun,\n        address creator,\n        string memory name,\n        string memory description,\n        string memory image,\n        string memory created,\n        string memory updated,\n        uint256 target\n    ) {\n        manager = creator;\n        minimunContribution = minimun;\n        CampaignName = name;\n        CampaignDescription = description;\n        imageUrl = image;\n        dateCreated = created;\n        dateUpdated = updated;\n        targetToAchieve = target;\n    }\n\n    function contribute() public payable {\n        require(msg.value > minimunContribution);\n\n        if (!approvers[msg.sender]) {\n            contributors.push(msg.sender);\n            approversCount++;\n            approvers[msg.sender] = true;\n        }\n    }\n\n    function createRequest(\n        string memory description,\n        uint256 value,\n        address recipient\n    ) public restricted {\n        Request storage r = requests[numRequests++];\n\n        // Request memory newRequest = Request({\n        //     description: description,\n        //     value: value,\n        //     recipient: recipient,\n        //     complete: false,\n        //     approvalCount: 0\n        // });\n        r.description = description;\n        r.value = value;\n        r.recipient = recipient;\n        r.complete = false;\n        r.approvalCount = 0;\n    }\n\n    function approveRequest(uint256 index) public {\n        require(approvers[msg.sender]);\n        require(!requests[index].approvals[msg.sender]);\n\n        requests[index].approvals[msg.sender] = true;\n        requests[index].approvalCount++;\n    }\n\n    function finalizeRequest(uint256 index) public restricted {\n        require(requests[index].approvalCount > (approversCount / 2));\n        require(!requests[index].complete);\n\n        payable(requests[index].recipient).transfer(requests[index].value);\n        requests[index].complete = true;\n    }\n\n    function getSummary()\n        public\n        view\n        returns (\n            uint256,\n            uint256,\n            uint256,\n            uint256,\n            address,\n            string memory,\n            string memory,\n            string memory,\n            string memory,\n            string memory,\n            uint256\n        )\n    {\n        return (\n            minimunContribution,\n            address(this).balance,\n            numRequests,\n            approversCount,\n            manager,\n            CampaignName,\n            CampaignDescription,\n            imageUrl,\n            dateCreated,\n            dateUpdated,\n            targetToAchieve\n        );\n    }\n\n    function getRequestsCount() public view returns (uint256) {\n        return numRequests;\n    }\n}\n",
  "sourcePath": "D:\\Blockchain\\CharityContract\\contracts\\Campaign.sol",
  "compiler": {
    "name": "solc",
    "version": "0.8.9+commit.e5eed63a.Emscripten.clang"
  },
  "schemaVersion": "3.4.7",
  "updatedAt": "2022-05-05T15:58:53.499Z",
  "devdoc": {
    "kind": "dev",
    "methods": {},
    "version": 1
  },
  "userdoc": {
    "kind": "user",
    "methods": {},
    "version": 1
  }
}